:100000000C9434000C9449000C9449000C94490061
:100010000C9449000C9449000C9449000C9449003C
:100020000C9449000C9449000C9449000C9449002C
:100030000C9449000C9449000C9449000C9449001C
:100040000C9449000C9449000C9449000C9449000C
:100050000C9449000C9449000C9449000C944900FC
:100060000C9449000C94490011241FBECFEFD8E036
:10007000DEBFCDBF11E0A0E0B1E0E8E6F0E102C0F4
:1000800005900D92A430B107D9F70E943E030C945D
:1000900032080C9400003D0A4F0A850AE00A5E0B04
:1000A000010CC60CAE0DB80EE40F31119D122914CF
:1000B000D3159A177D197C1B931DC41F0B2268242E
:1000C000D9265C29F12B962E48310634CF36A1393A
:1000D0007A3C583F3A421E450148E34AC14D9A5086
:1000E0006C533556F458A65B4A5EDF606363D46593
:1000F0003168786AA86CC06EBE70A172687412769E
:100100009E770B79577A837B8D7C757D3B7EDD7E78
:100110005B7FB67FEC7FFE7FEC7FB67F5B7FDD7E13
:100120003B7E757D8D7C837B577A0B799E7712762B
:100130006874A172BE70C06EA86C786A3168D465AC
:100140006363DF604A5EA65BF45835566C539A5081
:10015000C14DE34A01481E453A42583F7A3CA13915
:10016000CF3606344831962EF12B5C29D9266824E7
:100170000B22C41F931D7C1B7E199A17D3152914BB
:100180009D123111E40FB80EAE0DC60C010C5E0BC2
:10019000E00A850A4F0AFF7F0000D77F4706617F8C
:1001A0008B0C9C7EC712897DF818297C191F7C7ADC
:1001B000272583781E2B4076FB30B573B936E17066
:1001C000563CC96DCD416C6A1C47CE663F4CF1620E
:1001D0003351D65EF455815A815AF455D65E335167
:1001E000F1623F4CCE661C476C6ACD41C96D563CEE
:1001F000E170B936B573FB3040761E2B8378272526
:100200007C7A191F297CF818897DC7129C7E8B0C7B
:10021000617F4706D77F0000FE7FB9F9D77F75F36E
:10022000617F39ED9C7E08E7897DE7E0297CD9DA9A
:100230007C7AE2D4837805CF407647C9B573AAC3E8
:10024000E17033BEC96DE4B86C6AC1B3CE66CDAEA1
:10025000F1620CAAD65E7FA5815A2AA1F5550F9DA1
:10026000335132993F4C94951C473792CD411F8FA3
:10027000563C4C8CB936C089FB307D871E2B84855B
:100280002725D883191F7782F8186481C7129F80A9
:100290008B0C29804706000000018000800140008F
:1002A0004001C000C00120002001A000A0016000AA
:1002B0006001E000E001100010019000900150008A
:1002C0005001D000D00130003001B000B00170000A
:1002D0007001F000F0010800080188008801480062
:1002E0004801C800C80128002801A800A80168002A
:1002F0006801E800E801180018019800980158000A
:100300005801D800D80138003801B800B801780089
:100310007801F800F8013F922F921F930F93DF931B
:10032000CF93DC01EB019927E6E9F0E000E810E06B
:10033000259135914D915D91B503B0012C031001CC
:10034000691FBC03790B300C611D791FDA03790B2F
:10035000300C611D791F69937993699379930150EA
:10036000104031F7CF91DF910F911F912F903F9067
:10037000112408953F922F925F924F927F926F9235
:100380009F928F92BF92AF92DF92CF92FF92EF92A5
:100390001F930F93DF93CF93FC0181E090E0A0E4E3
:1003A000B0E004E0809F6001909FD00C7C019F939F
:1003B0008F93EF01A09FC00DD11DB09FD00DFF9373
:1003C000EF93BB24AA2499270081118115950795E5
:1003D0006881798175956795A801061B170B460FF3
:1003E000571F4193519320813181359527956A811B
:1003F0007B8175956795A901261B370B460F571F03
:10040000419351930F01E6E9F1E0EA0DFB1D45919F
:10041000559165917591F001950320010C03100130
:10042000491E9C03590A300C411C591ED803590A15
:10043000300C411C591EB70340012E033001891EA8
:10044000BE03990A700C811C991EFA03990A700C5C
:10045000811C991E260C371C481C591C4992599224
:10046000B50320012C031001491EBC03590A300CAE
:10047000411C591EDA03590A300C411C591E9703BE
:1004800040010E033001891E9E03990A700C811CE5
:10049000991EF803990A700C811C991E26183708BA
:1004A0004808590849925992AC0CBD1CB0FE8CCF3B
:1004B00004E0A09FC00DD11DE00DF11DB09FD00D37
:1004C000F00D81E0E81AF90A09F07BCFEF91FF9176
:1004D0008F919F91880F991FB695A795109609F057
:1004E00060CFCF91DF910F911F91EF90FF90CF9050
:1004F000DF90AF90BF908F909F906F907F904F90C4
:100500005F902F903F9008953F922F925F924F926D
:100510007F926F929F928F92BF92AF921F930F9391
:10052000DF93CF935C01EB01E6E9F2E0992700E469
:1005300010E0A591B591AA0DBB1D2D913D914D9156
:100540005D91B30320012A031001491EBA03590A21
:10055000300C411C591EBA03590A300C411C591E5B
:10056000D50340014C033001891EDC03990A700C4D
:10057000811C991EDC03990A700C811C991E260CA3
:10058000371C481C591C662477248824992421E0B0
:1005900030E04427552770E1220C331C441C551CC5
:1005A000661C771C881C991C220C331C441C551C8F
:1005B000661C771C881C991C2AF4620E731E841E0C
:1005C000951E04C0621A730A840A950A220F331F0B
:1005D000441F287F256097FC22507A95E9F64695BE
:1005E0003795279546953795279529933993015047
:1005F000104009F09ECFCF91DF910F911F91AF90E6
:10060000BF908F909F906F907F904F905F902F90B2
:100610003F9011240895AC019927D703F0014E03B0
:10062000D001E91FDE03F90BB00DE11DF91FFC033A
:10063000F90BB00DE11DF91FCF011124089520E63B
:1006400020937C0046ED40937A0020917A0024FFAD
:10065000FCCF20917800309179003058FC01219333
:100660003193CF01EFEFF2E03197F1F700C00000D6
:100670006150710941F710927A000895CF93DF938A
:10068000CDB7DEB7C059D3400FB6F894DEBF0FBE6A
:10069000CDBF0E94E9030E940B048E010F571C4F2F
:1006A00090E1592E20E0A22E21E0B22E0E94E90313
:1006B00081E00E94F7037C0182E00E94F7036C0155
:1006C000B701FF0C880B990B0E944F0424E135E021
:1006D0004AEF5BE30E94B3040E941E043B014C01FD
:1006E000B601DD0C880B990B0E944F0424E135E024
:1006F0004AEF5BE30E94B3040E941E04660E771E5D
:100700007301F694E79460E870E0CE018F5F9D4F2F
:100710000E941F03BE016F5F7F4FCE018F5F9D4F11
:100720000E948B01CE0101960E94BA01BE016F5F4B
:100730007C4FCE0101960E948402CE018F5F9C4FB8
:100740006C01F60180819181F2E0CF0ED11CF8019D
:10075000252D11922A95E9F79F938F93BF92AF921F
:100760001F930F930E94480538010F900F900F9030
:100770000F900F900F904801F40181914F01882351
:1007800019F00E941704F8CF8CE20E941704C016DB
:10079000D106B9F6F801252D11922A95E9F7FF92B5
:1007A000EF92BF92AF921F930F930E9448050F9054
:1007B0000F900F900F900F900F90F30181913F01D8
:1007C000882319F00E941704F8CF8AE00E941704CA
:1007D0006DCFECE7F0E0808180648083EAE7F0E0B1
:1007E0008081876080838081806880830895909174
:1007F0007C00907F892B80937C0080917A008064BC
:1008000080937A0080917A0086FDFCCF80917800F9
:100810009091790008951092C50080E18093C40002
:1008200088E18093C10086E08093C2000895909192
:10083000C00095FFFCCF8093C60008950E949204EB
:1008400088F09F5798F0B92F9927B751B0F0E1F091
:10085000660F771F881F991F1AF0BA95C9F714C041
:10086000B13091F00E94AC04B1E008950C94AC0456
:10087000672F782F8827B85F39F0B93FCCF386957A
:1008800077956795B395D9F73EF4909580957095D7
:1008900061957F4F8F4F9F4F0895E89409C097FB54
:1008A0003EF490958095709561957F4F8F4F9F4F47
:1008B0009923A9F0F92F96E9BB279395F69587958B
:1008C00077956795B795F111F8CFFAF4BB0F11F44E
:1008D00060FF1BC06F5F7F4F8F4F9F4F16C08823F5
:1008E00011F096E911C0772321F09EE8872F762F2B
:1008F00005C0662371F096E8862F70E060E02AF06C
:100900009A95660F771F881FDAF7880F9695879557
:1009100097F9089557FD9058440F551F59F05F3FC0
:1009200071F04795880F97FB991F61F09F3F79F011
:1009300087950895121613061406551FF2CF469593
:10094000F1DF08C0161617061806991FF1CF869515
:100950007105610508940895E894BB2766277727F9
:10096000CB0197F908950E94C6040C9437050E94A4
:10097000290538F00E94300520F0952311F00C94E1
:1009800020050C94260511240C94AD040E948A04C1
:1009900070F3959FC1F3950F50E0551F629FF001D2
:1009A000729FBB27F00DB11D639FAA27F00DB11DEB
:1009B000AA1F649F6627B00DA11D661F829F222774
:1009C000B00DA11D621F739FB00DA11D621F839FFB
:1009D000A00D611D221F749F3327A00D611D231FD1
:1009E000849F600D211D822F762F6A2F11249F571F
:1009F00050409AF0F1F088234AF0EE0FFF1FBB1F22
:100A0000661F771F881F91505040A9F79E3F5105E0
:100A100080F00C9420050C94AD045F3FE4F3983E05
:100A2000D4F3869577956795B795F795E7959F5F8A
:100A3000C1F7FE2B880F911D9695879597F908951C
:100A400097F99F6780E870E060E008959FEF80EC81
:100A5000089500240A941616170618060906089524
:100A600000240A9412161306140605060895092E8A
:100A70000394000C11F4882352F0BB0F40F4BF2BF9
:100A800011F460FF04C06F5F7F4F8F4F9F4F089539
:100A9000AEE0B0E0EEE4F5E00C9409080D891E89A3
:100AA00086E08C831A8309838FEF9FE79E838D8373
:100AB000AE01475E5F4F6F89788DCE0101960E942F
:100AC0006A05EF81F885E00FF11F10822E96E4E0B1
:100AD0000C942508ABE0B0E0E0E7F5E00C94FB07F0
:100AE0006C017B018A01FC0117821682838181FFE0
:100AF000CCC1CE0101963C01F6019381F70193FD33
:100B0000859193FF81917F01882309F4BAC18532D1
:100B100039F493FD859193FF81917F01853229F40A
:100B2000B60190E00E946107E7CF912C212C312C77
:100B3000FFE1F315D8F08B3279F038F4803279F098
:100B40008332A1F4232D20611DC08D3261F08033EA
:100B500069F4232D216016C0832D8260382EE32D89
:100B6000E4603E2E2AC0F32DF8601DC037FC2DC076
:100B700020ED280F2A3040F08E32B9F436FC81C1C6
:100B8000232D2064322E19C036FE06C08AE0989EBE
:100B9000200D1124922E11C0EAE02E9E200D11246A
:100BA000222EF32DF0623F2E08C08C3621F4832DC7
:100BB0008068382E02C0883641F4F70193FD859194
:100BC00093FF81917F018111B3CF982F9F7D955421
:100BD000933028F40C5F1F4F9FE399830DC0833639
:100BE00031F0833771F0833509F059C021C0F80125
:100BF000808189830E5F1F4F88248394912C530139
:100C000013C02801F2E04F0E511CF801A080B18002
:100C100036FE03C0692D70E002C06FEF7FEFC501A3
:100C20000E9456074C018201F32DFF773F2E16C01C
:100C3000280122E0420E511CF801A080B18036FE4E
:100C400003C0692D70E002C06FEF7FEFC5010E9405
:100C50004B074C01F32DF0683F2E820133FC1BC083
:100C6000822D90E088169906B0F4B60180E290E0FB
:100C70000E9461072A94F4CFF50137FC859137FE75
:100C800081915F01B60190E00E94610721102A94D2
:100C900021E0821A91088114910471F7E8C084362A
:100CA00011F0893641F5F80137FE07C06081718186
:100CB000828193810C5F1F4F08C060817181072E74
:100CC000000C880B990B0E5F1F4FF32DFF763F2E04
:100CD00097FF09C090958095709561957F4F8F4FD4
:100CE0009F4FF0683F2E2AE030E0A3010E949D074D
:100CF000882E861845C0853731F4232D2F7EB22EDD
:100D00002AE030E025C0932D997FB92E8F36C1F0AF
:100D100018F4883579F0B5C0803719F0883721F09C
:100D2000B0C0E92FE061BE2EB4FE0DC0FB2DF46013
:100D3000BF2E09C034FE0AC0292F2660B22E06C07D
:100D400028E030E005C020E130E002C020E132E0E0
:100D5000F801B7FE07C060817181828193810C5FC9
:100D60001F4F06C06081718180E090E00E5F1F4FD1
:100D7000A3010E949D07882E8618FB2DFF773F2E2A
:100D800036FE0DC0232D2E7FA22E891458F434FE7A
:100D90000BC032FC09C0832D8E7EA82E05C0B82C56
:100DA000A32C03C0B82C01C0B92CA4FE0FC0FE01B7
:100DB000E80DF11D8081803321F49A2D997EA92EB2
:100DC00009C0A2FE06C0B394B39404C08A2D8678ED
:100DD00009F0B394A3FC11C0A0FE06C0B21488F4BD
:100DE000280C922C9B180EC0B21460F4B60180E25D
:100DF00090E00E946107B394F7CFB21418F42B1857
:100E000002C0982C212CA4FE10C0B60180E390E013
:100E10000E946107A2FE17C0A1FC03C088E790E012
:100E200002C088E590E0B6010CC08A2D867859F0A2
:100E3000A1FE02C08BE201C080E2A7FC8DE2B601F8
:100E400090E00E946107891438F4B60180E390E0D5
:100E50000E9461079A94F7CF8A94F301E80DF11D7F
:100E60008081B60190E00E9461078110F5CF2220B9
:100E700009F442CEB60180E290E00E9461072A9414
:100E8000F6CFF6018681978102C08FEF9FEF2B96F8
:100E9000E2E10C941708FC010590615070400110CC
:100EA000D8F7809590958E0F9F1F0895FC01615093
:100EB000704001900110D8F7809590958E0F9F1F7C
:100EC00008950F931F93CF93DF93FB01238121FD9F
:100ED00003C08FEF9FEF2CC022FF16C046815781C1
:100EE000248135814217530744F4A081B1819D01CB
:100EF0002F5F3F4F318320838C93268137812F5F73
:100F00003F4F3783268314C08B01EC01FB01008423
:100F1000F185E02D0995892BE1F6D80116968D9182
:100F20009C911797019617969C938E931697CE01D6
:100F3000DF91CF911F910F910895FA01AA272830D0
:100F400051F1203181F1E8946F936E7F6E5F7F4F96
:100F50008F4F9F4FAF4FB1E03ED0B4E03CD0670F12
:100F6000781F891F9A1FA11D680F791F8A1F911D65
:100F7000A11D6A0F711D811D911DA11D20D009F4B5
:100F800068943F912AE0269F11243019305D3193F7
:100F9000DEF6CF010895462F4770405D4193B3E0E0
:100FA0000FD0C9F7F6CF462F4F70405D4A3318F087
:100FB000495D31FD4052419302D0A9F7EACFB4E038
:100FC000A6959795879577956795BA95C9F70097F0
:100FD0006105710508959B01AC010A2E0694579591
:100FE000479537952795BA95C9F7620F731F841FE8
:100FF000951FA01D08952F923F924F925F926F927E
:101000007F928F929F92AF92BF92CF92DF92EF9298
:10101000FF920F931F93CF93DF93CDB7DEB7CA1B19
:10102000DB0B0FB6F894DEBF0FBECDBF09942A8844
:10103000398848885F846E847D848C849B84AA84EC
:10104000B984C884DF80EE80FD800C811B81AA8179
:10105000B981CE0FD11D0FB6F894DEBF0FBECDBF44
:08106000ED010895F894FFCFA3
:0410680025750000EA
:00000001FF
